{
  "contractName": "OnyxTokenSale",
  "abi": [
    {
      "constant": false,
      "inputs": [],
      "name": "resume",
      "outputs": [],
      "payable": false,
      "stateMutability": "nonpayable",
      "type": "function"
    },
    {
      "constant": true,
      "inputs": [],
      "name": "phase1EndAt",
      "outputs": [
        {
          "name": "",
          "type": "uint256"
        }
      ],
      "payable": false,
      "stateMutability": "view",
      "type": "function"
    },
    {
      "constant": true,
      "inputs": [],
      "name": "phase2Bonus",
      "outputs": [
        {
          "name": "",
          "type": "uint256"
        }
      ],
      "payable": false,
      "stateMutability": "view",
      "type": "function"
    },
    {
      "constant": true,
      "inputs": [],
      "name": "isClose",
      "outputs": [
        {
          "name": "",
          "type": "bool"
        }
      ],
      "payable": false,
      "stateMutability": "view",
      "type": "function"
    },
    {
      "constant": false,
      "inputs": [
        {
          "name": "_teamWallet",
          "type": "address"
        }
      ],
      "name": "setTeamWallet",
      "outputs": [],
      "payable": false,
      "stateMutability": "nonpayable",
      "type": "function"
    },
    {
      "constant": true,
      "inputs": [],
      "name": "phase2TokenSold",
      "outputs": [
        {
          "name": "",
          "type": "uint256"
        }
      ],
      "payable": false,
      "stateMutability": "view",
      "type": "function"
    },
    {
      "constant": true,
      "inputs": [],
      "name": "plus",
      "outputs": [
        {
          "name": "",
          "type": "uint256"
        }
      ],
      "payable": false,
      "stateMutability": "view",
      "type": "function"
    },
    {
      "constant": true,
      "inputs": [],
      "name": "marketTokens",
      "outputs": [
        {
          "name": "",
          "type": "uint256"
        }
      ],
      "payable": false,
      "stateMutability": "view",
      "type": "function"
    },
    {
      "constant": false,
      "inputs": [
        {
          "name": "_ethToUsd",
          "type": "uint256"
        }
      ],
      "name": "setEthToUsd",
      "outputs": [],
      "payable": false,
      "stateMutability": "nonpayable",
      "type": "function"
    },
    {
      "constant": true,
      "inputs": [],
      "name": "phase4TokenSold",
      "outputs": [
        {
          "name": "",
          "type": "uint256"
        }
      ],
      "payable": false,
      "stateMutability": "view",
      "type": "function"
    },
    {
      "constant": true,
      "inputs": [],
      "name": "phase3Bonus",
      "outputs": [
        {
          "name": "",
          "type": "uint256"
        }
      ],
      "payable": false,
      "stateMutability": "view",
      "type": "function"
    },
    {
      "constant": true,
      "inputs": [],
      "name": "phase1EtherRaised",
      "outputs": [
        {
          "name": "",
          "type": "uint256"
        }
      ],
      "payable": false,
      "stateMutability": "view",
      "type": "function"
    },
    {
      "constant": true,
      "inputs": [],
      "name": "phase3TokenSold",
      "outputs": [
        {
          "name": "",
          "type": "uint256"
        }
      ],
      "payable": false,
      "stateMutability": "view",
      "type": "function"
    },
    {
      "constant": false,
      "inputs": [],
      "name": "close",
      "outputs": [],
      "payable": false,
      "stateMutability": "nonpayable",
      "type": "function"
    },
    {
      "constant": true,
      "inputs": [],
      "name": "wallet",
      "outputs": [
        {
          "name": "",
          "type": "address"
        }
      ],
      "payable": false,
      "stateMutability": "view",
      "type": "function"
    },
    {
      "constant": true,
      "inputs": [],
      "name": "phase2StartAt",
      "outputs": [
        {
          "name": "",
          "type": "uint256"
        }
      ],
      "payable": false,
      "stateMutability": "view",
      "type": "function"
    },
    {
      "constant": true,
      "inputs": [],
      "name": "usdToWei",
      "outputs": [
        {
          "name": "",
          "type": "uint256"
        }
      ],
      "payable": false,
      "stateMutability": "view",
      "type": "function"
    },
    {
      "constant": true,
      "inputs": [],
      "name": "phase3EtherRaised",
      "outputs": [
        {
          "name": "",
          "type": "uint256"
        }
      ],
      "payable": false,
      "stateMutability": "view",
      "type": "function"
    },
    {
      "constant": false,
      "inputs": [
        {
          "name": "_marketWallet",
          "type": "address"
        }
      ],
      "name": "setMarketWallet",
      "outputs": [],
      "payable": false,
      "stateMutability": "nonpayable",
      "type": "function"
    },
    {
      "constant": true,
      "inputs": [],
      "name": "teamWallet",
      "outputs": [
        {
          "name": "",
          "type": "address"
        }
      ],
      "payable": false,
      "stateMutability": "view",
      "type": "function"
    },
    {
      "constant": true,
      "inputs": [],
      "name": "totalEtherRaised",
      "outputs": [
        {
          "name": "",
          "type": "uint256"
        }
      ],
      "payable": false,
      "stateMutability": "view",
      "type": "function"
    },
    {
      "constant": false,
      "inputs": [],
      "name": "withdrawEther",
      "outputs": [],
      "payable": false,
      "stateMutability": "nonpayable",
      "type": "function"
    },
    {
      "constant": false,
      "inputs": [
        {
          "name": "_ts",
          "type": "uint256"
        }
      ],
      "name": "setBlockTime",
      "outputs": [],
      "payable": false,
      "stateMutability": "nonpayable",
      "type": "function"
    },
    {
      "constant": true,
      "inputs": [],
      "name": "pricePerToken",
      "outputs": [
        {
          "name": "",
          "type": "uint256"
        }
      ],
      "payable": false,
      "stateMutability": "view",
      "type": "function"
    },
    {
      "constant": true,
      "inputs": [],
      "name": "phase1TokenSold",
      "outputs": [
        {
          "name": "",
          "type": "uint256"
        }
      ],
      "payable": false,
      "stateMutability": "view",
      "type": "function"
    },
    {
      "constant": true,
      "inputs": [],
      "name": "phase2EtherRaised",
      "outputs": [
        {
          "name": "",
          "type": "uint256"
        }
      ],
      "payable": false,
      "stateMutability": "view",
      "type": "function"
    },
    {
      "constant": false,
      "inputs": [],
      "name": "pause",
      "outputs": [],
      "payable": false,
      "stateMutability": "nonpayable",
      "type": "function"
    },
    {
      "constant": true,
      "inputs": [],
      "name": "getBlockTime",
      "outputs": [
        {
          "name": "",
          "type": "uint256"
        }
      ],
      "payable": false,
      "stateMutability": "view",
      "type": "function"
    },
    {
      "constant": true,
      "inputs": [],
      "name": "phase2EndAt",
      "outputs": [
        {
          "name": "",
          "type": "uint256"
        }
      ],
      "payable": false,
      "stateMutability": "view",
      "type": "function"
    },
    {
      "constant": true,
      "inputs": [],
      "name": "owner",
      "outputs": [
        {
          "name": "",
          "type": "address"
        }
      ],
      "payable": false,
      "stateMutability": "view",
      "type": "function"
    },
    {
      "constant": true,
      "inputs": [],
      "name": "maxTokenForSale",
      "outputs": [
        {
          "name": "",
          "type": "uint256"
        }
      ],
      "payable": false,
      "stateMutability": "view",
      "type": "function"
    },
    {
      "constant": false,
      "inputs": [
        {
          "name": "_plus",
          "type": "uint256"
        }
      ],
      "name": "setPlusTime",
      "outputs": [],
      "payable": false,
      "stateMutability": "nonpayable",
      "type": "function"
    },
    {
      "constant": true,
      "inputs": [],
      "name": "isSoftcapReached",
      "outputs": [
        {
          "name": "",
          "type": "bool"
        }
      ],
      "payable": false,
      "stateMutability": "view",
      "type": "function"
    },
    {
      "constant": true,
      "inputs": [],
      "name": "phase3EndAt",
      "outputs": [
        {
          "name": "",
          "type": "uint256"
        }
      ],
      "payable": false,
      "stateMutability": "view",
      "type": "function"
    },
    {
      "constant": true,
      "inputs": [],
      "name": "ethToUsd",
      "outputs": [
        {
          "name": "",
          "type": "uint256"
        }
      ],
      "payable": false,
      "stateMutability": "view",
      "type": "function"
    },
    {
      "constant": true,
      "inputs": [],
      "name": "hardcap",
      "outputs": [
        {
          "name": "",
          "type": "uint256"
        }
      ],
      "payable": false,
      "stateMutability": "view",
      "type": "function"
    },
    {
      "constant": true,
      "inputs": [],
      "name": "isPaused",
      "outputs": [
        {
          "name": "",
          "type": "bool"
        }
      ],
      "payable": false,
      "stateMutability": "view",
      "type": "function"
    },
    {
      "constant": true,
      "inputs": [],
      "name": "totalTokenSold",
      "outputs": [
        {
          "name": "",
          "type": "uint256"
        }
      ],
      "payable": false,
      "stateMutability": "view",
      "type": "function"
    },
    {
      "constant": true,
      "inputs": [],
      "name": "teamTokens",
      "outputs": [
        {
          "name": "",
          "type": "uint256"
        }
      ],
      "payable": false,
      "stateMutability": "view",
      "type": "function"
    },
    {
      "constant": true,
      "inputs": [],
      "name": "isHardcapReached",
      "outputs": [
        {
          "name": "",
          "type": "bool"
        }
      ],
      "payable": false,
      "stateMutability": "view",
      "type": "function"
    },
    {
      "constant": false,
      "inputs": [],
      "name": "withdrawToken",
      "outputs": [],
      "payable": false,
      "stateMutability": "nonpayable",
      "type": "function"
    },
    {
      "constant": true,
      "inputs": [],
      "name": "phase3StartAt",
      "outputs": [
        {
          "name": "",
          "type": "uint256"
        }
      ],
      "payable": false,
      "stateMutability": "view",
      "type": "function"
    },
    {
      "constant": true,
      "inputs": [],
      "name": "phase4StartAt",
      "outputs": [
        {
          "name": "",
          "type": "uint256"
        }
      ],
      "payable": false,
      "stateMutability": "view",
      "type": "function"
    },
    {
      "constant": true,
      "inputs": [
        {
          "name": "",
          "type": "address"
        }
      ],
      "name": "etherRaisedPerWallet",
      "outputs": [
        {
          "name": "",
          "type": "uint256"
        }
      ],
      "payable": false,
      "stateMutability": "view",
      "type": "function"
    },
    {
      "constant": true,
      "inputs": [],
      "name": "phase4Bonus",
      "outputs": [
        {
          "name": "",
          "type": "uint256"
        }
      ],
      "payable": false,
      "stateMutability": "view",
      "type": "function"
    },
    {
      "constant": true,
      "inputs": [],
      "name": "phase4EndAt",
      "outputs": [
        {
          "name": "",
          "type": "uint256"
        }
      ],
      "payable": false,
      "stateMutability": "view",
      "type": "function"
    },
    {
      "constant": true,
      "inputs": [],
      "name": "phase1Bonus",
      "outputs": [
        {
          "name": "",
          "type": "uint256"
        }
      ],
      "payable": false,
      "stateMutability": "view",
      "type": "function"
    },
    {
      "constant": false,
      "inputs": [
        {
          "name": "_to",
          "type": "address"
        },
        {
          "name": "_value",
          "type": "uint256"
        },
        {
          "name": "_message",
          "type": "string"
        }
      ],
      "name": "transferManual",
      "outputs": [
        {
          "name": "",
          "type": "bool"
        }
      ],
      "payable": false,
      "stateMutability": "nonpayable",
      "type": "function"
    },
    {
      "constant": false,
      "inputs": [
        {
          "name": "_wallet",
          "type": "address"
        }
      ],
      "name": "setWallet",
      "outputs": [],
      "payable": false,
      "stateMutability": "nonpayable",
      "type": "function"
    },
    {
      "constant": true,
      "inputs": [],
      "name": "marketWallet",
      "outputs": [
        {
          "name": "",
          "type": "address"
        }
      ],
      "payable": false,
      "stateMutability": "view",
      "type": "function"
    },
    {
      "constant": true,
      "inputs": [],
      "name": "ts",
      "outputs": [
        {
          "name": "",
          "type": "uint256"
        }
      ],
      "payable": false,
      "stateMutability": "view",
      "type": "function"
    },
    {
      "constant": false,
      "inputs": [
        {
          "name": "beneficiary",
          "type": "address"
        }
      ],
      "name": "buy",
      "outputs": [],
      "payable": true,
      "stateMutability": "payable",
      "type": "function"
    },
    {
      "constant": false,
      "inputs": [
        {
          "name": "newOwner",
          "type": "address"
        }
      ],
      "name": "transferOwnership",
      "outputs": [],
      "payable": false,
      "stateMutability": "nonpayable",
      "type": "function"
    },
    {
      "constant": true,
      "inputs": [],
      "name": "softcap",
      "outputs": [
        {
          "name": "",
          "type": "uint256"
        }
      ],
      "payable": false,
      "stateMutability": "view",
      "type": "function"
    },
    {
      "constant": true,
      "inputs": [],
      "name": "phase4EtherRaised",
      "outputs": [
        {
          "name": "",
          "type": "uint256"
        }
      ],
      "payable": false,
      "stateMutability": "view",
      "type": "function"
    },
    {
      "constant": true,
      "inputs": [],
      "name": "token",
      "outputs": [
        {
          "name": "",
          "type": "address"
        }
      ],
      "payable": false,
      "stateMutability": "view",
      "type": "function"
    },
    {
      "constant": true,
      "inputs": [],
      "name": "phase1StartAt",
      "outputs": [
        {
          "name": "",
          "type": "uint256"
        }
      ],
      "payable": false,
      "stateMutability": "view",
      "type": "function"
    },
    {
      "inputs": [
        {
          "name": "_token",
          "type": "address"
        },
        {
          "name": "_wallet",
          "type": "address"
        },
        {
          "name": "_teamWallet",
          "type": "address"
        },
        {
          "name": "_marketWallet",
          "type": "address"
        }
      ],
      "payable": false,
      "stateMutability": "nonpayable",
      "type": "constructor"
    },
    {
      "payable": true,
      "stateMutability": "payable",
      "type": "fallback"
    },
    {
      "anonymous": false,
      "inputs": [
        {
          "indexed": true,
          "name": "_purchaser",
          "type": "address"
        },
        {
          "indexed": true,
          "name": "_beneficiary",
          "type": "address"
        },
        {
          "indexed": false,
          "name": "_value",
          "type": "uint256"
        },
        {
          "indexed": false,
          "name": "_amount",
          "type": "uint256"
        },
        {
          "indexed": false,
          "name": "_timestamp",
          "type": "uint256"
        }
      ],
      "name": "TokenPurchase",
      "type": "event"
    },
    {
      "anonymous": false,
      "inputs": [
        {
          "indexed": true,
          "name": "_from",
          "type": "address"
        },
        {
          "indexed": true,
          "name": "_to",
          "type": "address"
        },
        {
          "indexed": false,
          "name": "_value",
          "type": "uint256"
        },
        {
          "indexed": false,
          "name": "_message",
          "type": "string"
        }
      ],
      "name": "TransferManual",
      "type": "event"
    },
    {
      "anonymous": false,
      "inputs": [
        {
          "indexed": true,
          "name": "_wallet",
          "type": "address"
        },
        {
          "indexed": false,
          "name": "_value",
          "type": "uint256"
        }
      ],
      "name": "EtherWithdraw",
      "type": "event"
    },
    {
      "anonymous": false,
      "inputs": [
        {
          "indexed": true,
          "name": "_wallet",
          "type": "address"
        },
        {
          "indexed": false,
          "name": "_value",
          "type": "uint256"
        }
      ],
      "name": "TokenWithdraw",
      "type": "event"
    },
    {
      "anonymous": false,
      "inputs": [
        {
          "indexed": true,
          "name": "previousOwner",
          "type": "address"
        },
        {
          "indexed": true,
          "name": "newOwner",
          "type": "address"
        }
      ],
      "name": "OwnershipTransferred",
      "type": "event"
    }
  ],
  "bytecode": "0x606060405260006001556000600255610384600455600454670de0b6b3a764000081151561002957fe5b04600555632aea5400600655606460055460010281151561004657fe5b046007556317d78400600855632aea5400600955635a8f5980600a55600162093a80600a540103600b556014600c556000600d556000600e556001600b5401600f55600162093a80600f540103601055600f60115560006012556000601355600160105401601455600162093a806014540103601555600a60165560006017556000601855600160155401601955600162093a806019540103601a556000601b556000601c556000601d556000602160006101000a81548160ff0219169083151502179055506000602160016101000a81548160ff02191690831515021790555060006023556000602555341561013c57600080fd5b604051608080612b7683398101604052808051906020019091908051906020019091908051906020019091908051906020019091905050336000806101000a81548173ffffffffffffffffffffffffffffffffffffffff021916908373ffffffffffffffffffffffffffffffffffffffff16021790555083600360006101000a81548173ffffffffffffffffffffffffffffffffffffffff021916908373ffffffffffffffffffffffffffffffffffffffff16021790555082602160026101000a81548173ffffffffffffffffffffffffffffffffffffffff021916908373ffffffffffffffffffffffffffffffffffffffff16021790555081602260006101000a81548173ffffffffffffffffffffffffffffffffffffffff021916908373ffffffffffffffffffffffffffffffffffffffff16021790555080602460006101000a81548173ffffffffffffffffffffffffffffffffffffffff021916908373ffffffffffffffffffffffffffffffffffffffff160217905550505050506128ac806102ca6000396000f3006060604052600436106102a9576000357c0100000000000000000000000000000000000000000000000000000000900463ffffffff168063046f7da2146102b45780630544036d146102c95780630690ac48146102f25780631338f4931461031b5780631525ff7d1461034857806315f667ca1461038157806318b0c3fd146103aa57806322b9ceeb146103d357806322d53ce9146103fc5780632a57aa461461041f578063330f92411461044857806336020718146104715780633bccbbbc1461049a57806343d726d6146104c3578063521eb273146104d857806352ed67621461052d5780635380aa001461055657806353ffeda71461057f57806354332266146105a857806359927044146105e1578063691a5842146106365780637362377b1461065f578063758b1ce3146106745780637b1b1de6146106975780637d27ecf9146106c0578063843d80dd146106e95780638456cb591461071257806387ceff09146107275780638c4236b1146107505780638da5cb5b14610779578063939ea419146107ce57806394f05c65146107f7578063962f02151461081a578063a633ecb714610847578063ab4766e814610870578063b071cbe614610899578063b187bd26146108c2578063b5f7f636146108ef578063c3e3c7bc14610918578063c97a06ce14610941578063ca628c781461096e578063cd13f4ec14610983578063cd2788b8146109ac578063d46ba0c9146109d5578063d5d19af614610a22578063d934c3d714610a4b578063dac3cfda14610a74578063dc9f062214610a9d578063deaa59df14610b3a578063e4440a8614610b73578063e86d60bf14610bc8578063f088d54714610bf1578063f2fde38b14610c1f578063f89be59314610c58578063f96d31a714610c81578063fc0c546a14610caa578063fe844f8c14610cff575b6102b233610d28565b005b34156102bf57600080fd5b6102c7610ef7565b005b34156102d457600080fd5b6102dc610f6f565b6040518082815260200191505060405180910390f35b34156102fd57600080fd5b610305610f75565b6040518082815260200191505060405180910390f35b341561032657600080fd5b61032e610f7b565b604051808215151515815260200191505060405180910390f35b341561035357600080fd5b61037f600480803573ffffffffffffffffffffffffffffffffffffffff16906020019091905050610f8e565b005b341561038c57600080fd5b61039461102d565b6040518082815260200191505060405180910390f35b34156103b557600080fd5b6103bd611033565b6040518082815260200191505060405180910390f35b34156103de57600080fd5b6103e6611039565b6040518082815260200191505060405180910390f35b341561040757600080fd5b61041d600480803590602001909190505061103f565b005b341561042a57600080fd5b6104326110d8565b6040518082815260200191505060405180910390f35b341561045357600080fd5b61045b6110de565b6040518082815260200191505060405180910390f35b341561047c57600080fd5b6104846110e4565b6040518082815260200191505060405180910390f35b34156104a557600080fd5b6104ad6110ea565b6040518082815260200191505060405180910390f35b34156104ce57600080fd5b6104d66110f0565b005b34156104e357600080fd5b6104eb611168565b604051808273ffffffffffffffffffffffffffffffffffffffff1673ffffffffffffffffffffffffffffffffffffffff16815260200191505060405180910390f35b341561053857600080fd5b61054061118e565b6040518082815260200191505060405180910390f35b341561056157600080fd5b610569611194565b6040518082815260200191505060405180910390f35b341561058a57600080fd5b61059261119a565b6040518082815260200191505060405180910390f35b34156105b357600080fd5b6105df600480803573ffffffffffffffffffffffffffffffffffffffff169060200190919050506111a0565b005b34156105ec57600080fd5b6105f461123f565b604051808273ffffffffffffffffffffffffffffffffffffffff1673ffffffffffffffffffffffffffffffffffffffff16815260200191505060405180910390f35b341561064157600080fd5b610649611265565b6040518082815260200191505060405180910390f35b341561066a57600080fd5b61067261126b565b005b341561067f57600080fd5b61069560048080359060200190919050506113b7565b005b34156106a257600080fd5b6106aa61141c565b6040518082815260200191505060405180910390f35b34156106cb57600080fd5b6106d3611422565b6040518082815260200191505060405180910390f35b34156106f457600080fd5b6106fc611428565b6040518082815260200191505060405180910390f35b341561071d57600080fd5b61072561142e565b005b341561073257600080fd5b61073a6114a6565b6040518082815260200191505060405180910390f35b341561075b57600080fd5b6107636114cb565b6040518082815260200191505060405180910390f35b341561078457600080fd5b61078c6114d1565b604051808273ffffffffffffffffffffffffffffffffffffffff1673ffffffffffffffffffffffffffffffffffffffff16815260200191505060405180910390f35b34156107d957600080fd5b6107e16114f6565b6040518082815260200191505060405180910390f35b341561080257600080fd5b61081860048080359060200190919050506114fc565b005b341561082557600080fd5b61082d611561565b604051808215151515815260200191505060405180910390f35b341561085257600080fd5b61085a61157e565b6040518082815260200191505060405180910390f35b341561087b57600080fd5b610883611584565b6040518082815260200191505060405180910390f35b34156108a457600080fd5b6108ac61158a565b6040518082815260200191505060405180910390f35b34156108cd57600080fd5b6108d5611590565b604051808215151515815260200191505060405180910390f35b34156108fa57600080fd5b6109026115a3565b6040518082815260200191505060405180910390f35b341561092357600080fd5b61092b6115a9565b6040518082815260200191505060405180910390f35b341561094c57600080fd5b6109546115af565b604051808215151515815260200191505060405180910390f35b341561097957600080fd5b6109816115cc565b005b341561098e57600080fd5b610996611b9e565b6040518082815260200191505060405180910390f35b34156109b757600080fd5b6109bf611ba4565b6040518082815260200191505060405180910390f35b34156109e057600080fd5b610a0c600480803573ffffffffffffffffffffffffffffffffffffffff16906020019091905050611baa565b6040518082815260200191505060405180910390f35b3415610a2d57600080fd5b610a35611bc1565b6040518082815260200191505060405180910390f35b3415610a5657600080fd5b610a5e611bc7565b6040518082815260200191505060405180910390f35b3415610a7f57600080fd5b610a87611bcd565b6040518082815260200191505060405180910390f35b3415610aa857600080fd5b610b20600480803573ffffffffffffffffffffffffffffffffffffffff1690602001909190803590602001909190803590602001908201803590602001908080601f01602080910402602001604051908101604052809392919081815260200183838082843782019150505050505091905050611bd3565b604051808215151515815260200191505060405180910390f35b3415610b4557600080fd5b610b71600480803573ffffffffffffffffffffffffffffffffffffffff16906020019091905050611f68565b005b3415610b7e57600080fd5b610b86612007565b604051808273ffffffffffffffffffffffffffffffffffffffff1673ffffffffffffffffffffffffffffffffffffffff16815260200191505060405180910390f35b3415610bd357600080fd5b610bdb61202d565b6040518082815260200191505060405180910390f35b610c1d600480803573ffffffffffffffffffffffffffffffffffffffff16906020019091905050610d28565b005b3415610c2a57600080fd5b610c56600480803573ffffffffffffffffffffffffffffffffffffffff16906020019091905050612033565b005b3415610c6357600080fd5b610c6b612188565b6040518082815260200191505060405180910390f35b3415610c8c57600080fd5b610c9461218e565b6040518082815260200191505060405180910390f35b3415610cb557600080fd5b610cbd612194565b604051808273ffffffffffffffffffffffffffffffffffffffff1673ffffffffffffffffffffffffffffffffffffffff16815260200191505060405180910390f35b3415610d0a57600080fd5b610d126121ba565b6040518082815260200191505060405180910390f35b600080600073ffffffffffffffffffffffffffffffffffffffff168373ffffffffffffffffffffffffffffffffffffffff1614151515610d6757600080fd5b349150610d73826121c0565b9050610d7f82826123cb565b1515610d8a57600080fd5b610d948282612599565b50600360009054906101000a900473ffffffffffffffffffffffffffffffffffffffff1673ffffffffffffffffffffffffffffffffffffffff1663a9059cbb84836000604051602001526040518363ffffffff167c0100000000000000000000000000000000000000000000000000000000028152600401808373ffffffffffffffffffffffffffffffffffffffff1673ffffffffffffffffffffffffffffffffffffffff16815260200182815260200192505050602060405180830381600087803b1515610e6257600080fd5b6102c65a03f11515610e7357600080fd5b50505060405180519050508273ffffffffffffffffffffffffffffffffffffffff163373ffffffffffffffffffffffffffffffffffffffff167efe0e12b43090c1fc19a34aefa5cc138a4eeafc60ab800f855c730b3fb9480e84844260405180848152602001838152602001828152602001935050505060405180910390a3505050565b6000809054906101000a900473ffffffffffffffffffffffffffffffffffffffff1673ffffffffffffffffffffffffffffffffffffffff163373ffffffffffffffffffffffffffffffffffffffff16141515610f5257600080fd5b6000602160016101000a81548160ff021916908315150217905550565b600b5481565b60115481565b602160009054906101000a900460ff1681565b6000809054906101000a900473ffffffffffffffffffffffffffffffffffffffff1673ffffffffffffffffffffffffffffffffffffffff163373ffffffffffffffffffffffffffffffffffffffff16141515610fe957600080fd5b80602260006101000a81548173ffffffffffffffffffffffffffffffffffffffff021916908373ffffffffffffffffffffffffffffffffffffffff16021790555050565b60125481565b60025481565b60255481565b6000809054906101000a900473ffffffffffffffffffffffffffffffffffffffff1673ffffffffffffffffffffffffffffffffffffffff163373ffffffffffffffffffffffffffffffffffffffff1614151561109a57600080fd5b80600481905550600454670de0b6b3a76400008115156110b657fe5b0460058190555060646005546001028115156110ce57fe5b0460078190555050565b601c5481565b60165481565b600e5481565b60175481565b6000809054906101000a900473ffffffffffffffffffffffffffffffffffffffff1673ffffffffffffffffffffffffffffffffffffffff163373ffffffffffffffffffffffffffffffffffffffff1614151561114b57600080fd5b6001602160006101000a81548160ff021916908315150217905550565b602160029054906101000a900473ffffffffffffffffffffffffffffffffffffffff1681565b600f5481565b60055481565b60185481565b6000809054906101000a900473ffffffffffffffffffffffffffffffffffffffff1673ffffffffffffffffffffffffffffffffffffffff163373ffffffffffffffffffffffffffffffffffffffff161415156111fb57600080fd5b80602460006101000a81548173ffffffffffffffffffffffffffffffffffffffff021916908373ffffffffffffffffffffffffffffffffffffffff16021790555050565b602260009054906101000a900473ffffffffffffffffffffffffffffffffffffffff1681565b601f5481565b60008060009054906101000a900473ffffffffffffffffffffffffffffffffffffffff1673ffffffffffffffffffffffffffffffffffffffff163373ffffffffffffffffffffffffffffffffffffffff161415156112c857600080fd5b3073ffffffffffffffffffffffffffffffffffffffff16319050602160029054906101000a900473ffffffffffffffffffffffffffffffffffffffff1673ffffffffffffffffffffffffffffffffffffffff166108fc829081150290604051600060405180830381858888f19350505050151561134457600080fd5b602160029054906101000a900473ffffffffffffffffffffffffffffffffffffffff1673ffffffffffffffffffffffffffffffffffffffff167f88f6de14cf08cddfb4408f10758b118c28fc89b6e294e40a62286f8672599de8826040518082815260200191505060405180910390a250565b6000809054906101000a900473ffffffffffffffffffffffffffffffffffffffff1673ffffffffffffffffffffffffffffffffffffffff163373ffffffffffffffffffffffffffffffffffffffff1614151561141257600080fd5b8060018190555050565b60075481565b600d5481565b60135481565b6000809054906101000a900473ffffffffffffffffffffffffffffffffffffffff1673ffffffffffffffffffffffffffffffffffffffff163373ffffffffffffffffffffffffffffffffffffffff1614151561148957600080fd5b6001602160016101000a81548160ff021916908315150217905550565b60008060015411156114c0576002546001540190506114c8565b600254420190505b90565b60105481565b6000809054906101000a900473ffffffffffffffffffffffffffffffffffffffff1681565b60065481565b6000809054906101000a900473ffffffffffffffffffffffffffffffffffffffff1673ffffffffffffffffffffffffffffffffffffffff163373ffffffffffffffffffffffffffffffffffffffff1614151561155757600080fd5b8060028190555050565b6000600854601e541015611576576000611579565b60015b905090565b60155481565b60045481565b60095481565b602160019054906101000a900460ff1681565b601e5481565b60235481565b6000600954601e5410156115c45760006115c7565b60015b905090565b60008060009054906101000a900473ffffffffffffffffffffffffffffffffffffffff1673ffffffffffffffffffffffffffffffffffffffff163373ffffffffffffffffffffffffffffffffffffffff1614151561162957600080fd5b6116316114a6565b601a5410151561164057600080fd5b600360009054906101000a900473ffffffffffffffffffffffffffffffffffffffff1673ffffffffffffffffffffffffffffffffffffffff1663a9059cbb602260009054906101000a900473ffffffffffffffffffffffffffffffffffffffff166023546000604051602001526040518363ffffffff167c0100000000000000000000000000000000000000000000000000000000028152600401808373ffffffffffffffffffffffffffffffffffffffff1673ffffffffffffffffffffffffffffffffffffffff16815260200182815260200192505050602060405180830381600087803b151561173157600080fd5b6102c65a03f1151561174257600080fd5b5050506040518051905050602260009054906101000a900473ffffffffffffffffffffffffffffffffffffffff1673ffffffffffffffffffffffffffffffffffffffff167f68577e4d693c1b056a60bc4e39438810239a0bfe64869c4eb7e3baebb5f656346023546040518082815260200191505060405180910390a2600360009054906101000a900473ffffffffffffffffffffffffffffffffffffffff1673ffffffffffffffffffffffffffffffffffffffff1663a9059cbb602460009054906101000a900473ffffffffffffffffffffffffffffffffffffffff166025546000604051602001526040518363ffffffff167c0100000000000000000000000000000000000000000000000000000000028152600401808373ffffffffffffffffffffffffffffffffffffffff1673ffffffffffffffffffffffffffffffffffffffff16815260200182815260200192505050602060405180830381600087803b15156118b057600080fd5b6102c65a03f115156118c157600080fd5b5050506040518051905050602460009054906101000a900473ffffffffffffffffffffffffffffffffffffffff1673ffffffffffffffffffffffffffffffffffffffff167f68577e4d693c1b056a60bc4e39438810239a0bfe64869c4eb7e3baebb5f656346025546040518082815260200191505060405180910390a2600360009054906101000a900473ffffffffffffffffffffffffffffffffffffffff1673ffffffffffffffffffffffffffffffffffffffff166370a08231306000604051602001526040518263ffffffff167c0100000000000000000000000000000000000000000000000000000000028152600401808273ffffffffffffffffffffffffffffffffffffffff1673ffffffffffffffffffffffffffffffffffffffff168152602001915050602060405180830381600087803b1515611a0357600080fd5b6102c65a03f11515611a1457600080fd5b505050604051805190509050600360009054906101000a900473ffffffffffffffffffffffffffffffffffffffff1673ffffffffffffffffffffffffffffffffffffffff1663a9059cbb602160029054906101000a900473ffffffffffffffffffffffffffffffffffffffff16836000604051602001526040518363ffffffff167c0100000000000000000000000000000000000000000000000000000000028152600401808373ffffffffffffffffffffffffffffffffffffffff1673ffffffffffffffffffffffffffffffffffffffff16815260200182815260200192505050602060405180830381600087803b1515611b0f57600080fd5b6102c65a03f11515611b2057600080fd5b5050506040518051905050602160029054906101000a900473ffffffffffffffffffffffffffffffffffffffff1673ffffffffffffffffffffffffffffffffffffffff167f68577e4d693c1b056a60bc4e39438810239a0bfe64869c4eb7e3baebb5f65634826040518082815260200191505060405180910390a250565b60145481565b60195481565b602080528060005260406000206000915090505481565b601b5481565b601a5481565b600c5481565b60008060009054906101000a900473ffffffffffffffffffffffffffffffffffffffff1673ffffffffffffffffffffffffffffffffffffffff163373ffffffffffffffffffffffffffffffffffffffff16141515611c3057600080fd5b600073ffffffffffffffffffffffffffffffffffffffff168473ffffffffffffffffffffffffffffffffffffffff1614151515611c6c57600080fd5b600360009054906101000a900473ffffffffffffffffffffffffffffffffffffffff1673ffffffffffffffffffffffffffffffffffffffff1663a9059cbb85856000604051602001526040518363ffffffff167c0100000000000000000000000000000000000000000000000000000000028152600401808373ffffffffffffffffffffffffffffffffffffffff1673ffffffffffffffffffffffffffffffffffffffff16815260200182815260200192505050602060405180830381600087803b1515611d3957600080fd5b6102c65a03f11515611d4a57600080fd5b5050506040518051905050611d6a83601e546127f390919063ffffffff16565b601e81905550611d786114a6565b600a5411158015611d925750600b54611d8f6114a6565b11155b15611db757611dac83600d546127f390919063ffffffff16565b600d81905550611e8b565b611dbf6114a6565b600f5411158015611dd95750601054611dd66114a6565b11155b15611dfe57611df3836012546127f390919063ffffffff16565b601281905550611e8a565b611e066114a6565b60145411158015611e205750601554611e1d6114a6565b11155b15611e4557611e3a836017546127f390919063ffffffff16565b601781905550611e89565b611e4d6114a6565b60195411158015611e675750601a54611e646114a6565b11155b15611e8857611e8183601c546127f390919063ffffffff16565b601c819055505b5b5b5b8373ffffffffffffffffffffffffffffffffffffffff163373ffffffffffffffffffffffffffffffffffffffff167f1dd72454c96f602d3ea98635bc511bd8136bd9b966a15dfe34e83da17a7ddb1d85856040518083815260200180602001828103825283818151815260200191508051906020019080838360005b83811015611f22578082015181840152602081019050611f07565b50505050905090810190601f168015611f4f5780820380516001836020036101000a031916815260200191505b50935050505060405180910390a3600190509392505050565b6000809054906101000a900473ffffffffffffffffffffffffffffffffffffffff1673ffffffffffffffffffffffffffffffffffffffff163373ffffffffffffffffffffffffffffffffffffffff16141515611fc357600080fd5b80602160026101000a81548173ffffffffffffffffffffffffffffffffffffffff021916908373ffffffffffffffffffffffffffffffffffffffff16021790555050565b602460009054906101000a900473ffffffffffffffffffffffffffffffffffffffff1681565b60015481565b6000809054906101000a900473ffffffffffffffffffffffffffffffffffffffff1673ffffffffffffffffffffffffffffffffffffffff163373ffffffffffffffffffffffffffffffffffffffff1614151561208e57600080fd5b600073ffffffffffffffffffffffffffffffffffffffff168173ffffffffffffffffffffffffffffffffffffffff16141515156120ca57600080fd5b8073ffffffffffffffffffffffffffffffffffffffff166000809054906101000a900473ffffffffffffffffffffffffffffffffffffffff1673ffffffffffffffffffffffffffffffffffffffff167f8be0079c531659141344cd1fd0a4f28419497f9722a3daafe3b4186f6b6457e060405160405180910390a3806000806101000a81548173ffffffffffffffffffffffffffffffffffffffff021916908373ffffffffffffffffffffffffffffffffffffffff16021790555050565b60085481565b601d5481565b600360009054906101000a900473ffffffffffffffffffffffffffffffffffffffff1681565b600a5481565b600080600090506121cf6114a6565b600a54111580156121e95750600b546121e66114a6565b11155b15612246576122036007548461281190919063ffffffff16565b905061223f6122306064612222600c548561282c90919063ffffffff16565b61281190919063ffffffff16565b826127f390919063ffffffff16565b90506123c2565b61224e6114a6565b600f541115801561226857506010546122656114a6565b11155b156122c5576122826007548461281190919063ffffffff16565b90506122be6122af60646122a16011548561282c90919063ffffffff16565b61281190919063ffffffff16565b826127f390919063ffffffff16565b90506123c1565b6122cd6114a6565b601454111580156122e757506015546122e46114a6565b11155b15612344576123016007548461281190919063ffffffff16565b905061233d61232e60646123206016548561282c90919063ffffffff16565b61281190919063ffffffff16565b826127f390919063ffffffff16565b90506123c0565b61234c6114a6565b601954111580156123665750601a546123636114a6565b11155b156123bf576123806007548461281190919063ffffffff16565b90506123bc6123ad606461239f601b548561282c90919063ffffffff16565b61281190919063ffffffff16565b826127f390919063ffffffff16565b90505b5b5b5b80915050919050565b60008060008060008060009450600093506123e46114a6565b600a54111580156123fe5750600b546123fb6114a6565b11155b1561242857600194508661241f601e5460065461286790919063ffffffff16565b1015935061250b565b6124306114a6565b600f541115801561244a57506010546124476114a6565b11155b1561247457600194508661246b601e5460065461286790919063ffffffff16565b1015935061250a565b61247c6114a6565b6014541115801561249657506015546124936114a6565b11155b156124c05760019450866124b7601e5460065461286790919063ffffffff16565b10159350612509565b6124c86114a6565b601954111580156124e25750601a546124df6114a6565b11155b15612508576001945086612503601e5460065461286790919063ffffffff16565b101593505b5b5b5b600088141592506000871415915086612531601e5460095461286790919063ffffffff16565b1015905084801561253f5750835b80156125485750825b80156125515750815b801561255a5750805b80156125735750602160009054906101000a900460ff16155b801561258c5750602160019054906101000a900460ff16155b9550505050505092915050565b60006125b082601e546127f390919063ffffffff16565b601e819055506125cb83601f546127f390919063ffffffff16565b601f8190555061262383602060003373ffffffffffffffffffffffffffffffffffffffff1673ffffffffffffffffffffffffffffffffffffffff168152602001908152602001600020546127f390919063ffffffff16565b602060003373ffffffffffffffffffffffffffffffffffffffff1673ffffffffffffffffffffffffffffffffffffffff1681526020019081526020016000208190555061266e6114a6565b600a54111580156126885750600b546126856114a6565b11155b156126c8576126a282600d546127f390919063ffffffff16565b600d819055506126bd83600e546127f390919063ffffffff16565b600e819055506127ed565b6126d06114a6565b600f54111580156126ea57506010546126e76114a6565b11155b1561272a57612704826012546127f390919063ffffffff16565b60128190555061271f836013546127f390919063ffffffff16565b6013819055506127ec565b6127326114a6565b6014541115801561274c57506015546127496114a6565b11155b1561278c57612766826017546127f390919063ffffffff16565b601781905550612781836018546127f390919063ffffffff16565b6018819055506127eb565b6127946114a6565b601954111580156127ae5750601a546127ab6114a6565b11155b156127ea576127c882601c546127f390919063ffffffff16565b601c819055506127e383601d546127f390919063ffffffff16565b601d819055505b5b5b5b92915050565b600080828401905083811015151561280757fe5b8091505092915050565b600080828481151561281f57fe5b0490508091505092915050565b60008060008414156128415760009150612860565b828402905082848281151561285257fe5b0414151561285c57fe5b8091505b5092915050565b600082821115151561287557fe5b8183039050929150505600a165627a7a72305820fb39807a0cc2509c06a7bfa532b1c2f7567b39a53e56c08caa0d8746f9cb50210029",
  "source": "pragma solidity ^0.4.18;\n\nimport \"./../node_modules/zeppelin-solidity/contracts/ownership/Ownable.sol\";\nimport \"./Timestamped.sol\";\nimport \"./OnyxToken.sol\";\n\n/**\n* @title OnyxTokenSale\n* @dev This is ICO Contract. \n* This class accepts the token address as argument to talk with contract.\n* Once contract is deployed, funds are transferred to ICO smart contract address and then distributed with investor.\n* Sending funds to this ensures that no more than desired tokens are sold.\n*/\ncontract OnyxTokenSale is Ownable, Timestamped {\n\tusing SafeMath for uint256;\n\n\t// The token being sold, this holds reference to main token contract\n\tOnyxToken public token;\n\n\t// ether to usd price \n\tuint256 public ethToUsd = 900;\n\n\t// usd to wei price\n\tuint256 public usdToWei = 1 ether / ethToUsd;\n\n\t// amount of token to be sold on sale\n\tuint256 public maxTokenForSale = 720000000;\n\n\t// price per token in ether\n\tuint256 public pricePerToken = 1 * usdToWei / 100;\n\n\t// soft cap in wei \n\tuint256 public softcap = 400000000; \n\n\t// hard cap in wei \n\tuint256 public hardcap = 720000000; \n\n\t// phase variables\n\tuint256 public phase1StartAt = 1519344000; // Monday, 23 February 2018 00:00:00\n\tuint256 public phase1EndAt = phase1StartAt + 7 days - 1; // Sunday, 1 March 2018 23:59:59\n\tuint256 public phase1Bonus = 20;\n\tuint256 public phase1TokenSold = 0;\n\tuint256 public phase1EtherRaised = 0;\n\n\tuint256 public phase2StartAt = phase1EndAt + 1; // Monday, 2 March 2018 00:00:00\n\tuint256 public phase2EndAt = phase2StartAt + 7 days - 1; // Sunday, 7 March 2018 23:59:59\n\tuint256 public phase2Bonus = 15;\n\tuint256 public phase2TokenSold = 0;\n\tuint256 public phase2EtherRaised = 0;\n\n\tuint256 public phase3StartAt = phase2EndAt + 1; // Monday, 8 March 2018 00:00:00\n\tuint256 public phase3EndAt = phase3StartAt + 7 days - 1; // Sunday, 15 March 2018 23:59:59\n\tuint256 public phase3Bonus = 10;\n\tuint256 public phase3TokenSold = 0;\n\tuint256 public phase3EtherRaised = 0;\n\n\tuint256 public phase4StartAt = phase3EndAt + 1; // Monday, 16 March 2018 00:00:00\n\tuint256 public phase4EndAt = phase4StartAt + 7 days - 1; // Sunday, 23 March 2018 23:59:59\n\tuint256 public phase4Bonus = 0;\n\tuint256 public phase4TokenSold = 0;\n\tuint256 public phase4EtherRaised = 0;\n\n\t// amount of token sold so far\n\tuint256 public totalTokenSold;\n\n\t// amount of ether raised in sale\n\tuint256 public totalEtherRaised;\n\n\t// ether raised per wallet\n\tmapping(address => uint256) public etherRaisedPerWallet;\n\n\t// is contract close and ended\n\tbool public isClose = false;\n\n\t// is contract paused\n\tbool public isPaused = false;\n\n\t// withdrawal wallet\n\taddress public wallet;\n\n\t// team wallet \n\taddress public teamWallet;\n\tuint256 public teamTokens = 0; // 100000000\n\n\t// market wallet\n\taddress public marketWallet;\n\tuint256 public marketTokens = 0; // 180000000\n\n\t// token purchsae event\n\tevent TokenPurchase(address indexed _purchaser, address indexed _beneficiary, uint256 _value, uint256 _amount, uint256 _timestamp);\n\n\t// manual transfer by admin for external purchase\n\tevent TransferManual(address indexed _from, address indexed _to, uint256 _value, string _message);\n\n\t// ether withdraw event\n\tevent EtherWithdraw(address indexed _wallet, uint256 _value);\n\n\t// token withdraw event\n\tevent TokenWithdraw(address indexed _wallet, uint256 _value);\n\n\t/**\n\t* @dev Constructor that initializes token contract with token address in parameter\n\t*/\n\tfunction OnyxTokenSale(address _token, address _wallet, address _teamWallet, address _marketWallet) public {\n\t\t// set token\n\t\ttoken = OnyxToken(_token);\n\n\t\t// set wallet\n\t\twallet = _wallet;\n\t\tteamWallet = _teamWallet;\n\t\tmarketWallet = _marketWallet;\n\t}\n\n\t/**\n\t * @dev Function that set eth to usd price\n\t *\n\t * @param _ethToUsd eth to usd price\n\t */\n\tfunction setEthToUsd(uint256 _ethToUsd) onlyOwner public {\n\t\t// ether to usd price\n\t\tethToUsd = _ethToUsd;\n\n\t\t// usd to wei factor\n\t\tusdToWei = 1 ether / ethToUsd;\n\n\t\t// set price per token\n\t\tpricePerToken = 1 * usdToWei / 100;\n\t}\n\n\t/**\n\t * @dev Function that validates if the purchase is valid by verifying the parameters\n\t *\n\t * @param value Amount of ethers sent\n\t * @param amount Total number of tokens user is trying to buy.\n\t *\n\t * @return checks various conditions and returns the bool result indicating validity.\n\t */\n\tfunction validate(uint256 value, uint256 amount) internal constant returns (bool) {\n\t\t// check if timestamp and amount is falling in the range\n\t\tbool validTimestamp = false;\n\t\tbool validAmount = false;\n\n\t\t// check if phase 1 is running\t\n\t\tif(phase1StartAt <= getBlockTime() && getBlockTime() <= phase1EndAt) {\n\t\t\t// check if tokens is falling in timerange\n\t\t\tvalidTimestamp = true;\n\n\t\t\t// check if token amount is falling in limit\n\t\t\tvalidAmount = maxTokenForSale.sub(totalTokenSold) >= amount;\n\t\t}\n\n\t\t// check if phase 2 is running\t\n\t\telse if(phase2StartAt <= getBlockTime() && getBlockTime() <= phase2EndAt) {\n\t\t\t// check if tokens is falling in timerange\n\t\t\tvalidTimestamp = true;\n\n\t\t\t// check if token amount is falling in limit\n\t\t\tvalidAmount = maxTokenForSale.sub(totalTokenSold) >= amount;\n\t\t}\n\n\t\t// check if phase 3 is running\t\n\t\telse if(phase3StartAt <= getBlockTime() && getBlockTime() <= phase3EndAt) {\n\t\t\t// check if tokens is falling in timerange\n\t\t\tvalidTimestamp = true;\n\n\t\t\t// check if token amount is falling in limit\n\t\t\tvalidAmount = maxTokenForSale.sub(totalTokenSold) >= amount;\n\t\t}\n\n\t\t// check if phase 4 is running\t\n\t\telse if(phase4StartAt <= getBlockTime() && getBlockTime() <= phase4EndAt) {\n\t\t\t// check if tokens is falling in timerange\n\t\t\tvalidTimestamp = true;\n\n\t\t\t// check if token amount is falling in limit\n\t\t\tvalidAmount = maxTokenForSale.sub(totalTokenSold) >= amount;\n\t\t}\n\n\t\t// check if value of the ether is valid\n\t\tbool validValue = value != 0;\n\n\t\t// check if the tokens available in contract for sale\n\t\tbool validToken = amount != 0;\n\n\t\t// check if hardcap reached\n\t\tbool validCap = hardcap.sub(totalTokenSold) >= amount;\n\n\t\t// validate if all conditions are met\n\t\treturn validTimestamp && validAmount && validValue && validToken && validCap && !isClose && !isPaused;\n\t}\n\n\tfunction calculate(uint256 value) internal constant returns (uint256) {\n\t\tuint256 amount = 0;\n\t\t\t\n\t\t// check if phase 1 is running\t\n\t\tif(phase1StartAt <= getBlockTime() && getBlockTime() <= phase1EndAt) {\n\t\t\t// calculate the amount of tokens\n\t\t\tamount = value.div(pricePerToken);\n\t\t\tamount = amount.add(amount.mul(phase1Bonus).div(100));\n\t\t}\n\n\t\t// check if phase 2 is running\t\n\t\telse if(phase2StartAt <= getBlockTime() && getBlockTime() <= phase2EndAt) {\n\t\t\t// calculate the amount of tokens\n\t\t\tamount = value.div(pricePerToken);\n\t\t\tamount = amount.add(amount.mul(phase2Bonus).div(100));\n\t\t}\n\n\t\t// check if phase 3 is running\t\n\t\telse if(phase3StartAt <= getBlockTime() && getBlockTime() <= phase3EndAt) {\n\t\t\t// calculate the amount of tokens\n\t\t\tamount = value.div(pricePerToken);\n\t\t\tamount = amount.add(amount.mul(phase3Bonus).div(100));\n\t\t}\n\n\t\t// check if phase 4 is running\t\n\t\telse if(phase4StartAt <= getBlockTime() && getBlockTime() <= phase4EndAt) {\n\t\t\t// calculate the amount of tokens\n\t\t\tamount = value.div(pricePerToken);\n\t\t\tamount = amount.add(amount.mul(phase4Bonus).div(100));\n\t\t}\n\n\t\treturn amount;\n\t}\n\n\tfunction update(uint256 value, uint256 amount) internal returns (bool) {\n\n\t\t// update the state to log the sold tokens and raised ethers.\n\t\ttotalTokenSold = totalTokenSold.add(amount);\n\t\ttotalEtherRaised = totalEtherRaised.add(value);\n\t\tetherRaisedPerWallet[msg.sender] = etherRaisedPerWallet[msg.sender].add(value);\n\n\t\t// check if phase 1 is running\t\n\t\tif(phase1StartAt <= getBlockTime() && getBlockTime() <= phase1EndAt) {\n\t\t\t// add tokens to phase1 counts\n\t\t\tphase1TokenSold = phase1TokenSold.add(amount);\n\t\t\tphase1EtherRaised = phase1EtherRaised.add(value);\n\t\t}\n\n\t\t// check if phase 2 is running\t\n\t\telse if(phase2StartAt <= getBlockTime() && getBlockTime() <= phase2EndAt) {\n\t\t\t// add tokens to phase2 counts\n\t\t\tphase2TokenSold = phase2TokenSold.add(amount);\n\t\t\tphase2EtherRaised = phase2EtherRaised.add(value);\n\t\t}\n\n\t\t// check if phase 3 is running\t\n\t\telse if(phase3StartAt <= getBlockTime() && getBlockTime() <= phase3EndAt) {\n\t\t\t// add tokens to phase3 counts\n\t\t\tphase3TokenSold = phase3TokenSold.add(amount);\n\t\t\tphase3EtherRaised = phase3EtherRaised.add(value);\n\t\t}\n\n\t\t// check if phase 4 is running\t\n\t\telse if(phase4StartAt <= getBlockTime() && getBlockTime() <= phase4EndAt) {\n\t\t\t// add tokens to phase4 counts\n\t\t\tphase4TokenSold = phase4TokenSold.add(amount);\n\t\t\tphase4EtherRaised = phase4EtherRaised.add(value);\n\t\t}\n\t}\n\n\t/**\n\t * @dev Default fallback method which will be called when any ethers are sent to contract\n\t */\n\tfunction() public payable {\n\t\tbuy(msg.sender);\n\t}\n\n\t/**\n\t * @dev Function that is called either externally or by default payable method\n\t *\n\t * @param beneficiary who should receive tokens\n\t */\n\tfunction buy(address beneficiary) public payable {\n\t\trequire(beneficiary != address(0));\n\n\t\t// amount of ethers sent\n\t\tuint256 value = msg.value;\n\n\t\t// calculate tokens\n\t\tuint256 tokens = calculate(value);\n\n\t\t// validate the purchase\n\t\trequire(validate(value , tokens));\n\n\t\t// update current state \n\t\tupdate(value , tokens);\n\t\t\n\t\t// transfer tokens from contract balance to beneficiary account. calling ERC20 method\n\t\ttoken.transfer(beneficiary, tokens);\n\t\t\n\t\t// log event for token purchase\n\t\tTokenPurchase(msg.sender, beneficiary, value, tokens, now);\n\t}\n\n\t/**\n\t* @dev transmit token for a specified address. \n\t* This is owner only method and should be called using web3.js if someone is trying to buy token using bitcoin or any other altcoin.\n\t* \n\t* @param _to The address to transmit to.\n\t* @param _value The amount to be transferred.\n\t* @param _message message to log after transfer.\n\t*/\n\tfunction transferManual(address _to, uint256 _value, string _message) onlyOwner public returns (bool) {\n\t\trequire(_to != address(0));\n\n\t\t// transfer tokens manually from contract balance\n\t\ttoken.transfer(_to , _value);\n\n\n\t\t// update the state to log the sold tokens and raised ethers.\n\t\ttotalTokenSold = totalTokenSold.add(_value);\n\n\t\t// check if phase 1 is running\t\n\t\tif(phase1StartAt <= getBlockTime() && getBlockTime() <= phase1EndAt) {\n\t\t\t// add tokens to phase1 counts\n\t\t\tphase1TokenSold = phase1TokenSold.add(_value);\n\t\t}\n\n\t\t// check if phase 2 is running\t\n\t\telse if(phase2StartAt <= getBlockTime() && getBlockTime() <= phase2EndAt) {\n\t\t\t// add tokens to phase2 counts\n\t\t\tphase2TokenSold = phase2TokenSold.add(_value);\n\t\t}\n\n\t\t// check if phase 3 is running\t\n\t\telse if(phase3StartAt <= getBlockTime() && getBlockTime() <= phase3EndAt) {\n\t\t\t// add tokens to phase3 counts\n\t\t\tphase3TokenSold = phase3TokenSold.add(_value);\n\t\t}\n\n\t\t// check if phase 4 is running\t\n\t\telse if(phase4StartAt <= getBlockTime() && getBlockTime() <= phase4EndAt) {\n\t\t\t// add tokens to phase4 counts\n\t\t\tphase4TokenSold = phase4TokenSold.add(_value);\n\t\t}\n\n\t\t// log events for manual transfer\n\t\tTransferManual(msg.sender, _to, _value, _message);\n\t\t\n\t\treturn true;\n\t}\n\n\t/**\n\t * @dev Function that checks if softcap is reached\n\t *\n\t * @return boolean indicating if softcap reached\n\t */\n\tfunction isSoftcapReached() public view returns (bool) {\n\t\treturn totalTokenSold >= softcap ? true : false;\n\t}\n\n\t/**\n\t * @dev Function that checks if hardcap is reached\n\t *\n\t * @return boolean indicating if hardcap reached\n\t */\n\tfunction isHardcapReached() public view returns (bool) {\n\t\treturn totalTokenSold >= hardcap ? true : false;\n\t}\n\n\t/**\n\t* @dev set withdrawal wallet\n\t* this will set wallet address\n\t*/\t\n\tfunction setWallet(address _wallet) onlyOwner public {\n\t\t// save wallet address\n\t\twallet = _wallet;\n\t}\n\n\t/**\n\t* @dev set team wallet\n\t* this will set wallet address\n\t*/\t\n\tfunction setTeamWallet(address _teamWallet) onlyOwner public {\n\t\t// save teamWallet address\n\t\tteamWallet = _teamWallet;\n\t}\n\n\t/**\n\t* @dev set market wallet\n\t* this will set wallet address\n\t*/\t\n\tfunction setMarketWallet(address _marketWallet) onlyOwner public {\n\t\t// save marketWallet address\n\t\tmarketWallet = _marketWallet;\n\t}\n\n\t/**\n\t* @dev withdraw ethers \n\t* This will send ether to wallet\n\t*/\t\n\tfunction withdrawEther() onlyOwner public {\n\t\t// send balance to wallet\n\t\tuint256 balance = this.balance; \n\t\twallet.transfer(balance);\n\n\t\t// log event for ether withdraw\n\t\tEtherWithdraw(wallet , balance);\n\t}\n\n\t/**\n\t* @dev withdraw tokens \n\t* This will send token to wallet\n\t*/\t\n\tfunction withdrawToken() onlyOwner public {\n\t\trequire(phase4EndAt < getBlockTime());\n\n\t\t// send balance to team wallet\n\t\ttoken.transfer(teamWallet, teamTokens);\n\t\tTokenWithdraw(teamWallet, teamTokens);\n\n\t\t// send balance to market wallet\n\t\ttoken.transfer(marketWallet, marketTokens);\n\t\tTokenWithdraw(marketWallet, marketTokens);\n\n\t\t// send remaining balance to wallet\n\t\tuint256 balance = token.balanceOf(this); \n\t\ttoken.transfer(wallet, balance);\n\t\tTokenWithdraw(wallet, balance);\n\t}\n\n\t/**\n\t* @dev close contract \n\t* This will mark contract as closed\n\t*/\t\n\tfunction close() onlyOwner public {\n\t\t// mark the flag to indicate closure of the contract\n\t\tisClose = true;\n\t}\n\n\t/**\n\t* @dev pause contract \n\t* This will mark contract as paused\n\t*/\t\n\tfunction pause() onlyOwner public {\n\t\t// mark the flag to indicate pause of the contract\n\t\tisPaused = true;\n\t}\n\n\t/**\n\t* @dev resume contract \n\t* This will mark contract as resumed\n\t*/\t\n\tfunction resume() onlyOwner public {\n\t\t// mark the flag to indicate resume of the contract\n\t\tisPaused = false;\n\t}\n}",
  "sourcePath": "/Users/Projects/OnyxToken/code/onyxtoken/contracts/OnyxTokenSale.sol",
  "compiler": {
    "name": "solc",
    "version": "0.4.18+commit.9cf6e910.Emscripten.clang"
  },
  "schemaVersion": "1.0.1",
  "updatedAt": "2018-02-18T04:17:22.064Z"
}