{
  "contractName": "Timestamped",
  "abi": [
    {
      "constant": true,
      "inputs": [],
      "name": "plus",
      "outputs": [
        {
          "name": "",
          "type": "uint256"
        }
      ],
      "payable": false,
      "stateMutability": "view",
      "type": "function"
    },
    {
      "constant": false,
      "inputs": [
        {
          "name": "_ts",
          "type": "uint256"
        }
      ],
      "name": "setBlockTime",
      "outputs": [],
      "payable": false,
      "stateMutability": "nonpayable",
      "type": "function"
    },
    {
      "constant": true,
      "inputs": [],
      "name": "getBlockTime",
      "outputs": [
        {
          "name": "",
          "type": "uint256"
        }
      ],
      "payable": false,
      "stateMutability": "view",
      "type": "function"
    },
    {
      "constant": true,
      "inputs": [],
      "name": "owner",
      "outputs": [
        {
          "name": "",
          "type": "address"
        }
      ],
      "payable": false,
      "stateMutability": "view",
      "type": "function"
    },
    {
      "constant": false,
      "inputs": [
        {
          "name": "_plus",
          "type": "uint256"
        }
      ],
      "name": "setPlusTime",
      "outputs": [],
      "payable": false,
      "stateMutability": "nonpayable",
      "type": "function"
    },
    {
      "constant": true,
      "inputs": [],
      "name": "ts",
      "outputs": [
        {
          "name": "",
          "type": "uint256"
        }
      ],
      "payable": false,
      "stateMutability": "view",
      "type": "function"
    },
    {
      "constant": false,
      "inputs": [
        {
          "name": "newOwner",
          "type": "address"
        }
      ],
      "name": "transferOwnership",
      "outputs": [],
      "payable": false,
      "stateMutability": "nonpayable",
      "type": "function"
    },
    {
      "anonymous": false,
      "inputs": [
        {
          "indexed": true,
          "name": "previousOwner",
          "type": "address"
        },
        {
          "indexed": true,
          "name": "newOwner",
          "type": "address"
        }
      ],
      "name": "OwnershipTransferred",
      "type": "event"
    }
  ],
  "bytecode": "0x606060405260006001556000600255336000806101000a81548173ffffffffffffffffffffffffffffffffffffffff021916908373ffffffffffffffffffffffffffffffffffffffff1602179055506104788061005d6000396000f300606060405260043610610083576000357c0100000000000000000000000000000000000000000000000000000000900463ffffffff16806318b0c3fd14610088578063758b1ce3146100b157806387ceff09146100d45780638da5cb5b146100fd57806394f05c6514610152578063e86d60bf14610175578063f2fde38b1461019e575b600080fd5b341561009357600080fd5b61009b6101d7565b6040518082815260200191505060405180910390f35b34156100bc57600080fd5b6100d260048080359060200190919050506101dd565b005b34156100df57600080fd5b6100e7610242565b6040518082815260200191505060405180910390f35b341561010857600080fd5b610110610267565b604051808273ffffffffffffffffffffffffffffffffffffffff1673ffffffffffffffffffffffffffffffffffffffff16815260200191505060405180910390f35b341561015d57600080fd5b610173600480803590602001909190505061028c565b005b341561018057600080fd5b6101886102f1565b6040518082815260200191505060405180910390f35b34156101a957600080fd5b6101d5600480803573ffffffffffffffffffffffffffffffffffffffff169060200190919050506102f7565b005b60025481565b6000809054906101000a900473ffffffffffffffffffffffffffffffffffffffff1673ffffffffffffffffffffffffffffffffffffffff163373ffffffffffffffffffffffffffffffffffffffff1614151561023857600080fd5b8060018190555050565b600080600154111561025c57600254600154019050610264565b600254420190505b90565b6000809054906101000a900473ffffffffffffffffffffffffffffffffffffffff1681565b6000809054906101000a900473ffffffffffffffffffffffffffffffffffffffff1673ffffffffffffffffffffffffffffffffffffffff163373ffffffffffffffffffffffffffffffffffffffff161415156102e757600080fd5b8060028190555050565b60015481565b6000809054906101000a900473ffffffffffffffffffffffffffffffffffffffff1673ffffffffffffffffffffffffffffffffffffffff163373ffffffffffffffffffffffffffffffffffffffff1614151561035257600080fd5b600073ffffffffffffffffffffffffffffffffffffffff168173ffffffffffffffffffffffffffffffffffffffff161415151561038e57600080fd5b8073ffffffffffffffffffffffffffffffffffffffff166000809054906101000a900473ffffffffffffffffffffffffffffffffffffffff1673ffffffffffffffffffffffffffffffffffffffff167f8be0079c531659141344cd1fd0a4f28419497f9722a3daafe3b4186f6b6457e060405160405180910390a3806000806101000a81548173ffffffffffffffffffffffffffffffffffffffff021916908373ffffffffffffffffffffffffffffffffffffffff160217905550505600a165627a7a723058209f38592d0110b772ec1dc70733dfd0171fc8b229a203ede39255be9992db681a0029",
  "source": "pragma solidity ^0.4.18;\n\nimport \"./../node_modules/zeppelin-solidity/contracts/ownership/Ownable.sol\";\n\n/**\n * @title Timestamped\n * @dev The Timestamped contract has sets dummy timestamp for method calls\n */\ncontract Timestamped is Ownable {\n\tuint256 public ts = 0;\n\tuint256 public plus = 0;\n\n\tfunction setBlockTime(uint256 _ts) onlyOwner public {\n\t\tts = _ts;\n\t}\n\n\tfunction setPlusTime(uint256 _plus) onlyOwner public {\n\t\tplus = _plus;\n\t}\n\n\tfunction getBlockTime() public view returns (uint256) {\n\t\tif(ts > 0) {\n\t\t\treturn ts + plus;\n\t\t} else {\n\t\t\treturn block.timestamp + plus; \n\t\t}\n\t}\n}",
  "sourcePath": "/Users/Projects/OnyxToken/code/onyxtoken/contracts/Timestamped.sol",
  "compiler": {
    "name": "solc",
    "version": "0.4.18+commit.9cf6e910.Emscripten.clang"
  },
  "schemaVersion": "1.0.1",
  "updatedAt": "2018-02-18T04:17:22.066Z"
}